:020000040000FA
:10000000012885018601831686018312861431201A
:100010003120312031203120272027202720272080
:1000200027200000000000000000000086103120A2
:100030003120312031203120272027202720272060
:100040002720000000000000000000000628CE303D
:10005000A0002B282E28A00B2B280800A00B2E2850
:100060000800A330A000A1003528A00B3C28080000
:10007000A10B382835280800A10B3C283828352842
:02008000080076
:02400E00103F61
:00000001FF
