:020000040000FA
:1000000001288501860183160430850000308600B2
:1000100000308B00831207309F00FF30A300A30B3A
:1000200012200D280030A4000614422006101B20C8
:100030000030A40008000130A400861442204220B1
:10004000861029200130A400861442204220861008
:1000500008000230A400061542204220422006116A
:1000600039200230A4000615422042204220061109
:1000700008000330A400861542204220422042207E
:10008000861108003630A00000004B206530A1002A
:10009000A00B44280800051D652862207830A200C6
:1000A000A10B4D2808003630A00000005C20653010
:1000B000A100A00B5528080062207830A200A10BF7
:1000C0005C280800A20B62280800A403A40F69287A
:1000D0007028A40B6C287A28A40B6F288028862807
:1000E0000030A4000614051D70285320532053200F
:1000F00053200D280130A400861453208610702848
:100100000230A4000615532006117A280330A400FB
:0801100086155320861180289A
:02400E00103F61
:00000001FF
